{
  "contractName": "Insurance",
  "abi": [
    {
      "constant": false,
      "inputs": [
        {
          "internalType": "uint256",
          "name": "patient_id",
          "type": "uint256"
        },
        {
          "internalType": "string",
          "name": "_applicable",
          "type": "string"
        },
        {
          "internalType": "uint64",
          "name": "_policy_no",
          "type": "uint64"
        },
        {
          "internalType": "string",
          "name": "_insurer",
          "type": "string"
        },
        {
          "internalType": "string",
          "name": "_policy_type",
          "type": "string"
        },
        {
          "internalType": "string",
          "name": "_policy_limit",
          "type": "string"
        }
      ],
      "name": "insurance_details",
      "outputs": [],
      "payable": false,
      "stateMutability": "nonpayable",
      "type": "function"
    },
    {
      "constant": true,
      "inputs": [
        {
          "internalType": "uint256",
          "name": "patient_id",
          "type": "uint256"
        }
      ],
      "name": "get_insurance",
      "outputs": [
        {
          "internalType": "string",
          "name": "",
          "type": "string"
        },
        {
          "internalType": "uint64",
          "name": "",
          "type": "uint64"
        },
        {
          "internalType": "string",
          "name": "",
          "type": "string"
        },
        {
          "internalType": "string",
          "name": "",
          "type": "string"
        },
        {
          "internalType": "string",
          "name": "",
          "type": "string"
        }
      ],
      "payable": false,
      "stateMutability": "view",
      "type": "function"
    },
    {
      "constant": false,
      "inputs": [
        {
          "internalType": "uint256",
          "name": "patient_id",
          "type": "uint256"
        },
        {
          "internalType": "string",
          "name": "_complaints",
          "type": "string"
        },
        {
          "internalType": "string",
          "name": "_duration",
          "type": "string"
        }
      ],
      "name": "present_illness",
      "outputs": [],
      "payable": false,
      "stateMutability": "nonpayable",
      "type": "function"
    },
    {
      "constant": true,
      "inputs": [
        {
          "internalType": "uint256",
          "name": "patient_id",
          "type": "uint256"
        }
      ],
      "name": "get_present_illness",
      "outputs": [
        {
          "internalType": "string",
          "name": "",
          "type": "string"
        },
        {
          "internalType": "string",
          "name": "",
          "type": "string"
        }
      ],
      "payable": false,
      "stateMutability": "view",
      "type": "function"
    },
    {
      "constant": false,
      "inputs": [
        {
          "internalType": "uint256",
          "name": "patient_id",
          "type": "uint256"
        },
        {
          "internalType": "string",
          "name": "_family_history",
          "type": "string"
        },
        {
          "internalType": "string",
          "name": "_personal_history",
          "type": "string"
        },
        {
          "internalType": "string",
          "name": "_drug_history",
          "type": "string"
        }
      ],
      "name": "past_illness",
      "outputs": [],
      "payable": false,
      "stateMutability": "nonpayable",
      "type": "function"
    },
    {
      "constant": true,
      "inputs": [
        {
          "internalType": "uint256",
          "name": "patient_id",
          "type": "uint256"
        }
      ],
      "name": "get_past_illness",
      "outputs": [
        {
          "internalType": "string",
          "name": "",
          "type": "string"
        },
        {
          "internalType": "string",
          "name": "",
          "type": "string"
        },
        {
          "internalType": "string",
          "name": "",
          "type": "string"
        }
      ],
      "payable": false,
      "stateMutability": "view",
      "type": "function"
    },
    {
      "constant": false,
      "inputs": [
        {
          "internalType": "uint256",
          "name": "patient_id",
          "type": "uint256"
        },
        {
          "internalType": "string",
          "name": "_diag_summary",
          "type": "string"
        },
        {
          "internalType": "string",
          "name": "_prescription",
          "type": "string"
        }
      ],
      "name": "func_diagnosis",
      "outputs": [],
      "payable": false,
      "stateMutability": "nonpayable",
      "type": "function"
    },
    {
      "constant": true,
      "inputs": [
        {
          "internalType": "uint256",
          "name": "patient_id",
          "type": "uint256"
        }
      ],
      "name": "get_func_diagnosis",
      "outputs": [
        {
          "internalType": "string",
          "name": "",
          "type": "string"
        },
        {
          "internalType": "string",
          "name": "",
          "type": "string"
        }
      ],
      "payable": false,
      "stateMutability": "view",
      "type": "function"
    },
    {
      "constant": false,
      "inputs": [
        {
          "internalType": "uint256",
          "name": "patient_id",
          "type": "uint256"
        },
        {
          "internalType": "string",
          "name": "_treatment",
          "type": "string"
        },
        {
          "internalType": "string",
          "name": "_date_treatment",
          "type": "string"
        },
        {
          "internalType": "uint256",
          "name": "_doctor_id",
          "type": "uint256"
        },
        {
          "internalType": "uint256",
          "name": "_hospital_id",
          "type": "uint256"
        },
        {
          "internalType": "string",
          "name": "_discharge",
          "type": "string"
        },
        {
          "internalType": "string",
          "name": "_follow_up",
          "type": "string"
        }
      ],
      "name": "treatment_summary",
      "outputs": [],
      "payable": false,
      "stateMutability": "nonpayable",
      "type": "function"
    },
    {
      "constant": true,
      "inputs": [
        {
          "internalType": "uint256",
          "name": "patient_id",
          "type": "uint256"
        }
      ],
      "name": "get_treatment_summary",
      "outputs": [
        {
          "internalType": "string",
          "name": "",
          "type": "string"
        },
        {
          "internalType": "string",
          "name": "",
          "type": "string"
        },
        {
          "internalType": "uint256",
          "name": "",
          "type": "uint256"
        },
        {
          "internalType": "uint256",
          "name": "",
          "type": "uint256"
        },
        {
          "internalType": "string",
          "name": "",
          "type": "string"
        },
        {
          "internalType": "string",
          "name": "",
          "type": "string"
        }
      ],
      "payable": false,
      "stateMutability": "view",
      "type": "function"
    }
  ],
  "bytecode": "0x608060405234801561001057600080fd5b506124da806100206000396000f3fe608060405234801561001057600080fd5b506004361061009e5760003560e01c8063b1672bcb11610066578063b1672bcb14610a1b578063c5bc924114610b2e578063d82f057314610c41578063db4093ce14610edf578063e74baacf1461103b5761009e565b80631277335c146100a357806323b30120146101ff5780634fb658b11461037e5780636201030014610584578063a120437f1461077d575b600080fd5b6101fd600480360360608110156100b957600080fd5b8101908080359060200190929190803590602001906401000000008111156100e057600080fd5b8201836020820111156100f257600080fd5b8035906020019184600183028401116401000000008311171561011457600080fd5b91908080601f016020809104026020016040519081016040528093929190818152602001838380828437600081840152601f19601f8201169050808301925050505050505091929192908035906020019064010000000081111561017757600080fd5b82018360208201111561018957600080fd5b803590602001918460018302840111640100000000831117156101ab57600080fd5b91908080601f016020809104026020016040519081016040528093929190818152602001838380828437600081840152601f19601f82011690508083019250505050505050919291929050505061122e565b005b61022b6004803603602081101561021557600080fd5b81019080803590602001909291905050506112cf565b60405180806020018060200180602001848103845287818151815260200191508051906020019080838360005b83811015610273578082015181840152602081019050610258565b50505050905090810190601f1680156102a05780820380516001836020036101000a031916815260200191505b50848103835286818151815260200191508051906020019080838360005b838110156102d95780820151818401526020810190506102be565b50505050905090810190601f1680156103065780820380516001836020036101000a031916815260200191505b50848103825285818151815260200191508051906020019080838360005b8381101561033f578082015181840152602081019050610324565b50505050905090810190601f16801561036c5780820380516001836020036101000a031916815260200191505b50965050505050505060405180910390f35b6103aa6004803603602081101561039457600080fd5b8101908080359060200190929190505050611508565b60405180806020018667ffffffffffffffff1667ffffffffffffffff16815260200180602001806020018060200185810385528a818151815260200191508051906020019080838360005b838110156104105780820151818401526020810190506103f5565b50505050905090810190601f16801561043d5780820380516001836020036101000a031916815260200191505b50858103845288818151815260200191508051906020019080838360005b8381101561047657808201518184015260208101905061045b565b50505050905090810190601f1680156104a35780820380516001836020036101000a031916815260200191505b50858103835287818151815260200191508051906020019080838360005b838110156104dc5780820151818401526020810190506104c1565b50505050905090810190601f1680156105095780820380516001836020036101000a031916815260200191505b50858103825286818151815260200191508051906020019080838360005b83811015610542578082015181840152602081019050610527565b50505050905090810190601f16801561056f5780820380516001836020036101000a031916815260200191505b50995050505050505050505060405180910390f35b6105b06004803603602081101561059a57600080fd5b810190808035906020019092919050505061182b565b604051808060200180602001878152602001868152602001806020018060200185810385528b818151815260200191508051906020019080838360005b838110156106085780820151818401526020810190506105ed565b50505050905090810190601f1680156106355780820380516001836020036101000a031916815260200191505b5085810384528a818151815260200191508051906020019080838360005b8381101561066e578082015181840152602081019050610653565b50505050905090810190601f16801561069b5780820380516001836020036101000a031916815260200191505b50858103835287818151815260200191508051906020019080838360005b838110156106d45780820151818401526020810190506106b9565b50505050905090810190601f1680156107015780820380516001836020036101000a031916815260200191505b50858103825286818151815260200191508051906020019080838360005b8381101561073a57808201518184015260208101905061071f565b50505050905090810190601f1680156107675780820380516001836020036101000a031916815260200191505b509a505050505050505050505060405180910390f35b610a19600480360360c081101561079357600080fd5b8101908080359060200190929190803590602001906401000000008111156107ba57600080fd5b8201836020820111156107cc57600080fd5b803590602001918460018302840111640100000000831117156107ee57600080fd5b91908080601f016020809104026020016040519081016040528093929190818152602001838380828437600081840152601f19601f820116905080830192505050505050509192919290803567ffffffffffffffff1690602001909291908035906020019064010000000081111561086557600080fd5b82018360208201111561087757600080fd5b8035906020019184600183028401116401000000008311171561089957600080fd5b91908080601f016020809104026020016040519081016040528093929190818152602001838380828437600081840152601f19601f820116905080830192505050505050509192919290803590602001906401000000008111156108fc57600080fd5b82018360208201111561090e57600080fd5b8035906020019184600183028401116401000000008311171561093057600080fd5b91908080601f016020809104026020016040519081016040528093929190818152602001838380828437600081840152601f19601f8201169050808301925050505050505091929192908035906020019064010000000081111561099357600080fd5b8201836020820111156109a557600080fd5b803590602001918460018302840111640100000000831117156109c757600080fd5b91908080601f016020809104026020016040519081016040528093929190818152602001838380828437600081840152601f19601f820116905080830192505050505050509192919290505050611b38565b005b610a4760048036036020811015610a3157600080fd5b8101908080359060200190929190505050611ccd565b604051808060200180602001838103835285818151815260200191508051906020019080838360005b83811015610a8b578082015181840152602081019050610a70565b50505050905090810190601f168015610ab85780820380516001836020036101000a031916815260200191505b50838103825284818151815260200191508051906020019080838360005b83811015610af1578082015181840152602081019050610ad6565b50505050905090810190601f168015610b1e5780820380516001836020036101000a031916815260200191505b5094505050505060405180910390f35b610b5a60048036036020811015610b4457600080fd5b8101908080359060200190929190505050611e56565b604051808060200180602001838103835285818151815260200191508051906020019080838360005b83811015610b9e578082015181840152602081019050610b83565b50505050905090810190601f168015610bcb5780820380516001836020036101000a031916815260200191505b50838103825284818151815260200191508051906020019080838360005b83811015610c04578082015181840152602081019050610be9565b50505050905090810190601f168015610c315780820380516001836020036101000a031916815260200191505b5094505050505060405180910390f35b610edd600480360360e0811015610c5757600080fd5b810190808035906020019092919080359060200190640100000000811115610c7e57600080fd5b820183602082011115610c9057600080fd5b80359060200191846001830284011164010000000083111715610cb257600080fd5b91908080601f016020809104026020016040519081016040528093929190818152602001838380828437600081840152601f19601f82011690508083019250505050505050919291929080359060200190640100000000811115610d1557600080fd5b820183602082011115610d2757600080fd5b80359060200191846001830284011164010000000083111715610d4957600080fd5b91908080601f016020809104026020016040519081016040528093929190818152602001838380828437600081840152601f19601f820116905080830192505050505050509192919290803590602001909291908035906020019092919080359060200190640100000000811115610dc057600080fd5b820183602082011115610dd257600080fd5b80359060200191846001830284011164010000000083111715610df457600080fd5b91908080601f016020809104026020016040519081016040528093929190818152602001838380828437600081840152601f19601f82011690508083019250505050505050919291929080359060200190640100000000811115610e5757600080fd5b820183602082011115610e6957600080fd5b80359060200191846001830284011164010000000083111715610e8b57600080fd5b91908080601f016020809104026020016040519081016040528093929190818152602001838380828437600081840152601f19601f820116905080830192505050505050509192919290505050611fdf565b005b61103960048036036060811015610ef557600080fd5b810190808035906020019092919080359060200190640100000000811115610f1c57600080fd5b820183602082011115610f2e57600080fd5b80359060200191846001830284011164010000000083111715610f5057600080fd5b91908080601f016020809104026020016040519081016040528093929190818152602001838380828437600081840152601f19601f82011690508083019250505050505050919291929080359060200190640100000000811115610fb357600080fd5b820183602082011115610fc557600080fd5b80359060200191846001830284011164010000000083111715610fe757600080fd5b91908080601f016020809104026020016040519081016040528093929190818152602001838380828437600081840152601f19601f820116905080830192505050505050509192919290505050612130565b005b61122c6004803603608081101561105157600080fd5b81019080803590602001909291908035906020019064010000000081111561107857600080fd5b82018360208201111561108a57600080fd5b803590602001918460018302840111640100000000831117156110ac57600080fd5b91908080601f016020809104026020016040519081016040528093929190818152602001838380828437600081840152601f19601f8201169050808301925050505050505091929192908035906020019064010000000081111561110f57600080fd5b82018360208201111561112157600080fd5b8035906020019184600183028401116401000000008311171561114357600080fd5b91908080601f016020809104026020016040519081016040528093929190818152602001838380828437600081840152601f19601f820116905080830192505050505050509192919290803590602001906401000000008111156111a657600080fd5b8201836020820111156111b857600080fd5b803590602001918460018302840111640100000000831117156111da57600080fd5b91908080601f016020809104026020016040519081016040528093929190818152602001838380828437600081840152601f19601f8201169050808301925050505050505091929192905050506121d1565b005b81600760000190805190602001906112479291906122b5565b5080600760010190805190602001906112619291906122b5565b506007600660008581526020019081526020016000206000820181600001908054600181600116156101000203166002900461129e929190612335565b50600182018160010190805460018160011615610100020316600290046112c6929190612335565b50905050505050565b60608060606112dc6123bc565b60096000868152602001908152602001600020604051806060016040529081600082018054600181600116156101000203166002900480601f0160208091040260200160405190810160405280929190818152602001828054600181600116156101000203166002900480156113935780601f1061136857610100808354040283529160200191611393565b820191906000526020600020905b81548152906001019060200180831161137657829003601f168201915b50505050508152602001600182018054600181600116156101000203166002900480601f0160208091040260200160405190810160405280929190818152602001828054600181600116156101000203166002900480156114355780601f1061140a57610100808354040283529160200191611435565b820191906000526020600020905b81548152906001019060200180831161141857829003601f168201915b50505050508152602001600282018054600181600116156101000203166002900480601f0160208091040260200160405190810160405280929190818152602001828054600181600116156101000203166002900480156114d75780601f106114ac576101008083540402835291602001916114d7565b820191906000526020600020905b8154815290600101906020018083116114ba57829003601f168201915b5050505050815250509050806000015181602001518260400151829250819150809050935093509350509193909250565b6060600060608060606115196123dd565b6000808881526020019081526020016000206040518060a0016040529081600082018054600181600116156101000203166002900480601f0160208091040260200160405190810160405280929190818152602001828054600181600116156101000203166002900480156115cf5780601f106115a4576101008083540402835291602001916115cf565b820191906000526020600020905b8154815290600101906020018083116115b257829003601f168201915b505050505081526020016001820160009054906101000a900467ffffffffffffffff1667ffffffffffffffff1667ffffffffffffffff168152602001600282018054600181600116156101000203166002900480601f0160208091040260200160405190810160405280929190818152602001828054600181600116156101000203166002900480156116a35780601f10611678576101008083540402835291602001916116a3565b820191906000526020600020905b81548152906001019060200180831161168657829003601f168201915b50505050508152602001600382018054600181600116156101000203166002900480601f0160208091040260200160405190810160405280929190818152602001828054600181600116156101000203166002900480156117455780601f1061171a57610100808354040283529160200191611745565b820191906000526020600020905b81548152906001019060200180831161172857829003601f168201915b50505050508152602001600482018054600181600116156101000203166002900480601f0160208091040260200160405190810160405280929190818152602001828054600181600116156101000203166002900480156117e75780601f106117bc576101008083540402835291602001916117e7565b820191906000526020600020905b8154815290600101906020018083116117ca57829003601f168201915b505050505081525050905080600001518160200151826040015183606001518460800151849450829250819150809050955095509550955095505091939590929450565b60608060008060608061183c612416565b601060008981526020019081526020016000206040518060c0016040529081600082018054600181600116156101000203166002900480601f0160208091040260200160405190810160405280929190818152602001828054600181600116156101000203166002900480156118f35780601f106118c8576101008083540402835291602001916118f3565b820191906000526020600020905b8154815290600101906020018083116118d657829003601f168201915b50505050508152602001600182018054600181600116156101000203166002900480601f0160208091040260200160405190810160405280929190818152602001828054600181600116156101000203166002900480156119955780601f1061196a57610100808354040283529160200191611995565b820191906000526020600020905b81548152906001019060200180831161197857829003601f168201915b505050505081526020016002820154815260200160038201548152602001600482018054600181600116156101000203166002900480601f016020809104026020016040519081016040528092919081815260200182805460018160011615610100020316600290048015611a4b5780601f10611a2057610100808354040283529160200191611a4b565b820191906000526020600020905b815481529060010190602001808311611a2e57829003601f168201915b50505050508152602001600582018054600181600116156101000203166002900480601f016020809104026020016040519081016040528092919081815260200182805460018160011615610100020316600290048015611aed5780601f10611ac257610100808354040283529160200191611aed565b820191906000526020600020905b815481529060010190602001808311611ad057829003601f168201915b5050505050815250509050806000015181602001518260400151836060015184608001518560a001518595508494508191508090509650965096509650965096505091939550919395565b8460016000019080519060200190611b519291906122b5565b50836001800160006101000a81548167ffffffffffffffff021916908367ffffffffffffffff1602179055508260016002019080519060200190611b969291906122b5565b508160016003019080519060200190611bb09291906122b5565b508060016004019080519060200190611bca9291906122b5565b50600160008088815260200190815260200160002060008201816000019080546001816001161561010002031660029004611c06929190612335565b506001820160009054906101000a900467ffffffffffffffff168160010160006101000a81548167ffffffffffffffff021916908367ffffffffffffffff16021790555060028201816002019080546001816001161561010002031660029004611c71929190612335565b5060038201816003019080546001816001161561010002031660029004611c99929190612335565b5060048201816004019080546001816001161561010002031660029004611cc1929190612335565b50905050505050505050565b606080611cd861244c565b600d6000858152602001908152602001600020604051806040016040529081600082018054600181600116156101000203166002900480601f016020809104026020016040519081016040528092919081815260200182805460018160011615610100020316600290048015611d8f5780601f10611d6457610100808354040283529160200191611d8f565b820191906000526020600020905b815481529060010190602001808311611d7257829003601f168201915b50505050508152602001600182018054600181600116156101000203166002900480601f016020809104026020016040519081016040528092919081815260200182805460018160011615610100020316600290048015611e315780601f10611e0657610100808354040283529160200191611e31565b820191906000526020600020905b815481529060010190602001808311611e1457829003601f168201915b5050505050815250509050806000015181602001518191508090509250925050915091565b606080611e61612466565b60066000858152602001908152602001600020604051806040016040529081600082018054600181600116156101000203166002900480601f016020809104026020016040519081016040528092919081815260200182805460018160011615610100020316600290048015611f185780601f10611eed57610100808354040283529160200191611f18565b820191906000526020600020905b815481529060010190602001808311611efb57829003601f168201915b50505050508152602001600182018054600181600116156101000203166002900480601f016020809104026020016040519081016040528092919081815260200182805460018160011615610100020316600290048015611fba5780601f10611f8f57610100808354040283529160200191611fba565b820191906000526020600020905b815481529060010190602001808311611f9d57829003601f168201915b5050505050815250509050806000015181602001518191508090509250925050915091565b8560116000019080519060200190611ff89291906122b5565b5084601160010190805190602001906120129291906122b5565b50836011600201819055508260116003018190555081601160040190805190602001906120409291906122b5565b50806011600501908051906020019061205a9291906122b5565b5060116010600089815260200190815260200160002060008201816000019080546001816001161561010002031660029004612097929190612335565b50600182018160010190805460018160011615610100020316600290046120bf929190612335565b506002820154816002015560038201548160030155600482018160040190805460018160011615610100020316600290046120fb929190612335565b5060058201816005019080546001816001161561010002031660029004612123929190612335565b5090505050505050505050565b81600e60000190805190602001906121499291906122b5565b5080600e60010190805190602001906121639291906122b5565b50600e600d6000858152602001908152602001600020600082018160000190805460018160011615610100020316600290046121a0929190612335565b50600182018160010190805460018160011615610100020316600290046121c8929190612335565b50905050505050565b82600a60000190805190602001906121ea9291906122b5565b5081600a60010190805190602001906122049291906122b5565b5080600a600201908051906020019061221e9291906122b5565b50600a600960008681526020019081526020016000206000820181600001908054600181600116156101000203166002900461225b929190612335565b5060018201816001019080546001816001161561010002031660029004612283929190612335565b50600282018160020190805460018160011615610100020316600290046122ab929190612335565b5090505050505050565b828054600181600116156101000203166002900490600052602060002090601f016020900481019282601f106122f657805160ff1916838001178555612324565b82800160010185558215612324579182015b82811115612323578251825591602001919060010190612308565b5b5090506123319190612480565b5090565b828054600181600116156101000203166002900490600052602060002090601f016020900481019282601f1061236e57805485556123ab565b828001600101855582156123ab57600052602060002091601f016020900482015b828111156123aa57825482559160010191906001019061238f565b5b5090506123b89190612480565b5090565b60405180606001604052806060815260200160608152602001606081525090565b6040518060a0016040528060608152602001600067ffffffffffffffff1681526020016060815260200160608152602001606081525090565b6040518060c001604052806060815260200160608152602001600081526020016000815260200160608152602001606081525090565b604051806040016040528060608152602001606081525090565b604051806040016040528060608152602001606081525090565b6124a291905b8082111561249e576000816000905550600101612486565b5090565b9056fea265627a7a723158202a170d67d98aff9187be4c20af367580acdfd312e113caccd44ac3b6254d01f564736f6c63430005100032",
  "source": "pragma solidity >=0.4.22 <0.7.0;\n\n\ncontract Insurance{\n\nstruct insurance{\n     string applicable;\n     uint64 policy_no;\n     string insurer;\n     string policy_type;\n     string policy_limit;\n     }\n\n\n     mapping(uint256 => insurance) insurancelist;\n     insurance i;\n\n     function insurance_details(uint256 patient_id,string memory _applicable,uint64 _policy_no,string memory _insurer,string memory _policy_type,string memory _policy_limit)public {\n\n\n                        i.applicable = _applicable;\n                        i.policy_no = _policy_no;\n                        i.insurer = _insurer;\n                        i.policy_type = _policy_type;\n                        i.policy_limit = _policy_limit;\n\n                        insurancelist[patient_id] = i;\n\n                    }\n   function get_insurance(uint256 patient_id)public view returns (string memory,uint64,string memory,string memory,string memory){\n\n                       insurance memory il = insurancelist[patient_id];\n                       return (il.applicable, il.policy_no,il.insurer,il.policy_type,il.policy_limit);\n                    }\n      //History\n\n     struct history{\n     string complaints;\n     string duration;\n     }\n     mapping(uint256 => history) patienthistory;\n    history hi;\n\n    function present_illness(uint256 patient_id,string memory _complaints,string memory _duration)public {\n\n                                 hi.complaints = _complaints;\n                                 hi.duration = _duration;\n\n                                 patienthistory[patient_id] = hi;\n                             }\n    function get_present_illness(uint256 patient_id)public view returns (string memory,string memory){\n\n                                  history memory hil = patienthistory[patient_id];\n                                  return (hil.complaints,hil.duration);\n                             }\n\n\n//Past Illness\n\n     struct past{\n     string family_history;\n     string personal_history;\n     string drug_history;\n     }\n     mapping(uint256 => past) pasthistory;\n     past pa;\n\n     function past_illness(uint256 patient_id,string memory _family_history,string memory _personal_history,string memory _drug_history)public {\n\n                                          pa.family_history = _family_history;\n                                          pa.personal_history = _personal_history;\n                                          pa.drug_history = _drug_history;\n\n\n                                          pasthistory[patient_id] = pa;\n                                      }\n\n     function get_past_illness(uint256 patient_id)public view returns (string memory,string memory,string memory){\n\n                                           past memory pal = pasthistory[patient_id];\n                                           return (pal.family_history,pal.personal_history,pal.drug_history);\n                                      }\n\n\n\n//Diagnosis\n\n     struct diag{\n     string diag_summary;\n     string prescription;\n}\nmapping(uint256 => diag) diagnosis;\ndiag du;\n\nfunction func_diagnosis(uint256 patient_id,string memory _diag_summary,string memory _prescription)public {\n\n\n                                             du.diag_summary = _diag_summary;\n                                             du.prescription = _prescription;\n\n\n                                             diagnosis[patient_id] = du;\n\n                                         }\n  function get_func_diagnosis(uint256 patient_id)public view returns (string memory,string memory){\n\n                                              diag memory dl = diagnosis[patient_id];\n\n                                             return (  dl.diag_summary,dl.prescription);\n\n                                             }\n//Treatment\n\n\n\nstruct treat{\n     string treatment;\n     string date_treatment;\n      uint256 doctor_id;\n     uint256 hospital_id;\n     string discharge;\n     string follow_up;\n     }\n     mapping(uint256 => treat) treatment;\n     treat tr;\n\n     function treatment_summary(uint256 patient_id,string memory _treatment,string memory _date_treatment,uint256 _doctor_id,uint256 _hospital_id,string memory _discharge,string memory _follow_up)public {\n\n\n                                                          tr.treatment = _treatment;\n                                                          tr.date_treatment = _date_treatment;\n                                                          tr.doctor_id = _doctor_id;\n                                                          tr.hospital_id = _hospital_id;\n                                                          tr.discharge = _discharge;\n                                                          tr.follow_up = _follow_up;\n\n\n                                                          treatment[patient_id] = tr;\n\n                                                      }\n\n       function get_treatment_summary(uint256 patient_id)public view returns (string memory,string memory,uint256,uint256,string memory,string memory){\n\n                                                           treat memory trl = treatment[patient_id];\n\n                                                          return (trl.treatment,trl.date_treatment,trl.doctor_id,trl.hospital_id,trl.discharge,trl.follow_up);\n\n                                                          }\n\n}\n",
  "sourcePath": "C:/Users/Tarun Jain/Desktop/Project/Hospital-record-management-using-blockchain.-master/contracts/Insurance.sol",
  "compiler": {
    "name": "solc",
    "version": "0.5.16+commit.9c3226ce.Emscripten.clang"
  },
  "schemaVersion": "3.4.1",
  "updatedAt": "2021-08-07T04:10:34.169Z",
  "networkType": "ethereum",
  "devdoc": {
    "methods": {}
  },
  "userdoc": {
    "methods": {}
  }
}