{
  "contractName": "Meme",
  "abi": [
    {
      "constant": false,
      "inputs": [
        {
          "internalType": "uint16",
          "name": "doctor_id",
          "type": "uint16"
        },
        {
          "internalType": "string",
          "name": "_doctor_name",
          "type": "string"
        },
        {
          "internalType": "string",
          "name": "_doctor_specialisation",
          "type": "string"
        },
        {
          "internalType": "uint256",
          "name": "_doctor_ph_no",
          "type": "uint256"
        },
        {
          "internalType": "string",
          "name": "_doctor_address",
          "type": "string"
        }
      ],
      "name": "store_doctor_details",
      "outputs": [],
      "payable": false,
      "stateMutability": "nonpayable",
      "type": "function"
    },
    {
      "constant": true,
      "inputs": [
        {
          "internalType": "uint16",
          "name": "doctor_id",
          "type": "uint16"
        }
      ],
      "name": "retreive_doctor_details",
      "outputs": [
        {
          "internalType": "string",
          "name": "",
          "type": "string"
        },
        {
          "internalType": "string",
          "name": "",
          "type": "string"
        },
        {
          "internalType": "uint256",
          "name": "",
          "type": "uint256"
        },
        {
          "internalType": "string",
          "name": "",
          "type": "string"
        }
      ],
      "payable": false,
      "stateMutability": "view",
      "type": "function"
    },
    {
      "constant": false,
      "inputs": [
        {
          "internalType": "uint16",
          "name": "staff_id",
          "type": "uint16"
        },
        {
          "internalType": "string",
          "name": "_staff_name",
          "type": "string"
        },
        {
          "internalType": "string",
          "name": "_staff_specialisation",
          "type": "string"
        },
        {
          "internalType": "uint256",
          "name": "_staff_ph_no",
          "type": "uint256"
        },
        {
          "internalType": "string",
          "name": "_staff_address",
          "type": "string"
        }
      ],
      "name": "store_staff_details",
      "outputs": [],
      "payable": false,
      "stateMutability": "nonpayable",
      "type": "function"
    },
    {
      "constant": true,
      "inputs": [
        {
          "internalType": "uint16",
          "name": "staff_id",
          "type": "uint16"
        }
      ],
      "name": "retreive_staff_details",
      "outputs": [
        {
          "internalType": "string",
          "name": "",
          "type": "string"
        },
        {
          "internalType": "string",
          "name": "",
          "type": "string"
        },
        {
          "internalType": "uint256",
          "name": "",
          "type": "uint256"
        },
        {
          "internalType": "string",
          "name": "",
          "type": "string"
        }
      ],
      "payable": false,
      "stateMutability": "view",
      "type": "function"
    },
    {
      "constant": false,
      "inputs": [
        {
          "internalType": "uint256",
          "name": "patient_id",
          "type": "uint256"
        },
        {
          "internalType": "string",
          "name": "_patient_name",
          "type": "string"
        },
        {
          "internalType": "uint256",
          "name": "_age",
          "type": "uint256"
        },
        {
          "internalType": "string",
          "name": "_gender",
          "type": "string"
        },
        {
          "internalType": "string",
          "name": "_height",
          "type": "string"
        },
        {
          "internalType": "uint256",
          "name": "_weight",
          "type": "uint256"
        },
        {
          "internalType": "string",
          "name": "_patient_address",
          "type": "string"
        },
        {
          "internalType": "uint256",
          "name": "_phone_no",
          "type": "uint256"
        },
        {
          "internalType": "string",
          "name": "_email_id",
          "type": "string"
        },
        {
          "internalType": "uint256",
          "name": "_date",
          "type": "uint256"
        }
      ],
      "name": "store_patient_details",
      "outputs": [],
      "payable": false,
      "stateMutability": "nonpayable",
      "type": "function"
    },
    {
      "constant": true,
      "inputs": [
        {
          "internalType": "uint256",
          "name": "patient_id",
          "type": "uint256"
        }
      ],
      "name": "retreive_patient_details",
      "outputs": [
        {
          "internalType": "string",
          "name": "",
          "type": "string"
        },
        {
          "internalType": "uint256",
          "name": "",
          "type": "uint256"
        },
        {
          "internalType": "string",
          "name": "",
          "type": "string"
        },
        {
          "internalType": "string",
          "name": "",
          "type": "string"
        },
        {
          "internalType": "uint256",
          "name": "",
          "type": "uint256"
        },
        {
          "internalType": "string",
          "name": "",
          "type": "string"
        },
        {
          "internalType": "uint256",
          "name": "",
          "type": "uint256"
        },
        {
          "internalType": "string",
          "name": "",
          "type": "string"
        },
        {
          "internalType": "uint256",
          "name": "",
          "type": "uint256"
        }
      ],
      "payable": false,
      "stateMutability": "view",
      "type": "function"
    },
    {
      "constant": false,
      "inputs": [
        {
          "internalType": "uint256",
          "name": "patient_id",
          "type": "uint256"
        },
        {
          "internalType": "string",
          "name": "_attendant_name",
          "type": "string"
        },
        {
          "internalType": "string",
          "name": "_attendant_relation",
          "type": "string"
        },
        {
          "internalType": "uint256",
          "name": "_attendant_phn_no",
          "type": "uint256"
        }
      ],
      "name": "store_attendant_details",
      "outputs": [],
      "payable": false,
      "stateMutability": "nonpayable",
      "type": "function"
    },
    {
      "constant": true,
      "inputs": [
        {
          "internalType": "uint256",
          "name": "patient_id",
          "type": "uint256"
        }
      ],
      "name": "retreive_attendant_details",
      "outputs": [
        {
          "internalType": "string",
          "name": "",
          "type": "string"
        },
        {
          "internalType": "string",
          "name": "",
          "type": "string"
        },
        {
          "internalType": "uint256",
          "name": "",
          "type": "uint256"
        }
      ],
      "payable": false,
      "stateMutability": "view",
      "type": "function"
    }
  ],
  "bytecode": "0x608060405234801561001057600080fd5b506120eb806100206000396000f3fe608060405234801561001057600080fd5b50600436106100885760003560e01c8063c909f8f71161005b578063c909f8f71461088c578063d734f9b714610bd6578063f2926f9314610cf0578063f5b31bfe14610e7a57610088565b80631b17ffae1461008d57806365d4352a1461028e57806368bdecfe146105015780636cac3a181461068b575b600080fd5b61028c600480360360a08110156100a357600080fd5b81019080803561ffff169060200190929190803590602001906401000000008111156100ce57600080fd5b8201836020820111156100e057600080fd5b8035906020019184600183028401116401000000008311171561010257600080fd5b91908080601f016020809104026020016040519081016040528093929190818152602001838380828437600081840152601f19601f8201169050808301925050505050505091929192908035906020019064010000000081111561016557600080fd5b82018360208201111561017757600080fd5b8035906020019184600183028401116401000000008311171561019957600080fd5b91908080601f016020809104026020016040519081016040528093929190818152602001838380828437600081840152601f19601f820116905080830192505050505050509192919290803590602001909291908035906020019064010000000081111561020657600080fd5b82018360208201111561021857600080fd5b8035906020019184600183028401116401000000008311171561023a57600080fd5b91908080601f016020809104026020016040519081016040528093929190818152602001838380828437600081840152601f19601f820116905080830192505050505050509192919290505050610fe0565b005b6102ba600480360360208110156102a457600080fd5b81019080803590602001909291905050506110dd565b60405180806020018a81526020018060200180602001898152602001806020018881526020018060200187815260200186810386528f818151815260200191508051906020019080838360005b83811015610322578082015181840152602081019050610307565b50505050905090810190601f16801561034f5780820380516001836020036101000a031916815260200191505b5086810385528d818151815260200191508051906020019080838360005b8381101561038857808201518184015260208101905061036d565b50505050905090810190601f1680156103b55780820380516001836020036101000a031916815260200191505b5086810384528c818151815260200191508051906020019080838360005b838110156103ee5780820151818401526020810190506103d3565b50505050905090810190601f16801561041b5780820380516001836020036101000a031916815260200191505b5086810383528a818151815260200191508051906020019080838360005b83811015610454578082015181840152602081019050610439565b50505050905090810190601f1680156104815780820380516001836020036101000a031916815260200191505b50868103825288818151815260200191508051906020019080838360005b838110156104ba57808201518184015260208101905061049f565b50505050905090810190601f1680156104e75780820380516001836020036101000a031916815260200191505b509e50505050505050505050505050505060405180910390f35b6105316004803603602081101561051757600080fd5b81019080803561ffff1690602001909291905050506114da565b60405180806020018060200185815260200180602001848103845288818151815260200191508051906020019080838360005b8381101561057f578082015181840152602081019050610564565b50505050905090810190601f1680156105ac5780820380516001836020036101000a031916815260200191505b50848103835287818151815260200191508051906020019080838360005b838110156105e55780820151818401526020810190506105ca565b50505050905090810190601f1680156106125780820380516001836020036101000a031916815260200191505b50848103825285818151815260200191508051906020019080838360005b8381101561064b578082015181840152602081019050610630565b50505050905090810190601f1680156106785780820380516001836020036101000a031916815260200191505b5097505050505050505060405180910390f35b61088a600480360360a08110156106a157600080fd5b81019080803561ffff169060200190929190803590602001906401000000008111156106cc57600080fd5b8201836020820111156106de57600080fd5b8035906020019184600183028401116401000000008311171561070057600080fd5b91908080601f016020809104026020016040519081016040528093929190818152602001838380828437600081840152601f19601f8201169050808301925050505050505091929192908035906020019064010000000081111561076357600080fd5b82018360208201111561077557600080fd5b8035906020019184600183028401116401000000008311171561079757600080fd5b91908080601f016020809104026020016040519081016040528093929190818152602001838380828437600081840152601f19601f820116905080830192505050505050509192919290803590602001909291908035906020019064010000000081111561080457600080fd5b82018360208201111561081657600080fd5b8035906020019184600183028401116401000000008311171561083857600080fd5b91908080601f016020809104026020016040519081016040528093929190818152602001838380828437600081840152601f19601f820116905080830192505050505050509192919290505050611729565b005b610bd460048036036101408110156108a357600080fd5b8101908080359060200190929190803590602001906401000000008111156108ca57600080fd5b8201836020820111156108dc57600080fd5b803590602001918460018302840111640100000000831117156108fe57600080fd5b91908080601f016020809104026020016040519081016040528093929190818152602001838380828437600081840152601f19601f820116905080830192505050505050509192919290803590602001909291908035906020019064010000000081111561096b57600080fd5b82018360208201111561097d57600080fd5b8035906020019184600183028401116401000000008311171561099f57600080fd5b91908080601f016020809104026020016040519081016040528093929190818152602001838380828437600081840152601f19601f82011690508083019250505050505050919291929080359060200190640100000000811115610a0257600080fd5b820183602082011115610a1457600080fd5b80359060200191846001830284011164010000000083111715610a3657600080fd5b91908080601f016020809104026020016040519081016040528093929190818152602001838380828437600081840152601f19601f8201169050808301925050505050505091929192908035906020019092919080359060200190640100000000811115610aa357600080fd5b820183602082011115610ab557600080fd5b80359060200191846001830284011164010000000083111715610ad757600080fd5b91908080601f016020809104026020016040519081016040528093929190818152602001838380828437600081840152601f19601f8201169050808301925050505050505091929192908035906020019092919080359060200190640100000000811115610b4457600080fd5b820183602082011115610b5657600080fd5b80359060200191846001830284011164010000000083111715610b7857600080fd5b91908080601f016020809104026020016040519081016040528093929190818152602001838380828437600081840152601f19601f82011690508083019250505050505050919291929080359060200190929190505050611824565b005b610c0260048036036020811015610bec57600080fd5b81019080803590602001909291905050506119f6565b604051808060200180602001848152602001838103835286818151815260200191508051906020019080838360005b83811015610c4c578082015181840152602081019050610c31565b50505050905090810190601f168015610c795780820380516001836020036101000a031916815260200191505b50838103825285818151815260200191508051906020019080838360005b83811015610cb2578082015181840152602081019050610c97565b50505050905090810190601f168015610cdf5780820380516001836020036101000a031916815260200191505b509550505050505060405180910390f35b610d2060048036036020811015610d0657600080fd5b81019080803561ffff169060200190929190505050611b9e565b60405180806020018060200185815260200180602001848103845288818151815260200191508051906020019080838360005b83811015610d6e578082015181840152602081019050610d53565b50505050905090810190601f168015610d9b5780820380516001836020036101000a031916815260200191505b50848103835287818151815260200191508051906020019080838360005b83811015610dd4578082015181840152602081019050610db9565b50505050905090810190601f168015610e015780820380516001836020036101000a031916815260200191505b50848103825285818151815260200191508051906020019080838360005b83811015610e3a578082015181840152602081019050610e1f565b50505050905090810190601f168015610e675780820380516001836020036101000a031916815260200191505b5097505050505050505060405180910390f35b610fde60048036036080811015610e9057600080fd5b810190808035906020019092919080359060200190640100000000811115610eb757600080fd5b820183602082011115610ec957600080fd5b80359060200191846001830284011164010000000083111715610eeb57600080fd5b91908080601f016020809104026020016040519081016040528093929190818152602001838380828437600081840152601f19601f82011690508083019250505050505050919291929080359060200190640100000000811115610f4e57600080fd5b820183602082011115610f6057600080fd5b80359060200191846001830284011164010000000083111715610f8257600080fd5b91908080601f016020809104026020016040519081016040528093929190818152602001838380828437600081840152601f19601f82011690508083019250505050505050919291929080359060200190929190505050611dee565b005b8360066000019080519060200190610ff9929190611eb8565b508260066001019080519060200190611013929190611eb8565b50816006600201819055508060066003019080519060200190611037929190611eb8565b506006600560008761ffff16815260200190815260200160002060008201816000019080546001816001161561010002031660029004611078929190611f38565b50600182018160010190805460018160011615610100020316600290046110a0929190611f38565b5060028201548160020155600382018160030190805460018160011615610100020316600290046110d2929190611f38565b509050505050505050565b60606000606080600060606000606060006110f6611fbf565b600a60008c815260200190815260200160002060405180610160016040529081600082018054600181600116156101000203166002900480601f0160208091040260200160405190810160405280929190818152602001828054600181600116156101000203166002900480156111ae5780601f10611183576101008083540402835291602001916111ae565b820191906000526020600020905b81548152906001019060200180831161119157829003601f168201915b5050505050815260200160018201548152602001600282018054600181600116156101000203166002900480601f01602080910402602001604051908101604052809291908181526020018280546001816001161561010002031660029004801561125a5780601f1061122f5761010080835404028352916020019161125a565b820191906000526020600020905b81548152906001019060200180831161123d57829003601f168201915b50505050508152602001600382018054600181600116156101000203166002900480601f0160208091040260200160405190810160405280929190818152602001828054600181600116156101000203166002900480156112fc5780601f106112d1576101008083540402835291602001916112fc565b820191906000526020600020905b8154815290600101906020018083116112df57829003601f168201915b5050505050815260200160048201548152602001600582018054600181600116156101000203166002900480601f0160208091040260200160405190810160405280929190818152602001828054600181600116156101000203166002900480156113a85780601f1061137d576101008083540402835291602001916113a8565b820191906000526020600020905b81548152906001019060200180831161138b57829003601f168201915b5050505050815260200160068201548152602001600782018054600181600116156101000203166002900480601f0160208091040260200160405190810160405280929190818152602001828054600181600116156101000203166002900480156114545780601f1061142957610100808354040283529160200191611454565b820191906000526020600020905b81548152906001019060200180831161143757829003601f168201915b505050505081526020016008820154815260200160098201548152602001600a820154815250509050806000015181602001518260400151836060015184608001518560a001518660c001518760e00151886101000151889850869650859550839350819150995099509950995099509950995099509950509193959799909294969850565b606080600060606114e9612019565b6000808761ffff168152602001908152602001600020604051806080016040529081600082018054600181600116156101000203166002900480601f0160208091040260200160405190810160405280929190818152602001828054600181600116156101000203166002900480156115a35780601f10611578576101008083540402835291602001916115a3565b820191906000526020600020905b81548152906001019060200180831161158657829003601f168201915b50505050508152602001600182018054600181600116156101000203166002900480601f0160208091040260200160405190810160405280929190818152602001828054600181600116156101000203166002900480156116455780601f1061161a57610100808354040283529160200191611645565b820191906000526020600020905b81548152906001019060200180831161162857829003601f168201915b5050505050815260200160028201548152602001600382018054600181600116156101000203166002900480601f0160208091040260200160405190810160405280929190818152602001828054600181600116156101000203166002900480156116f15780601f106116c6576101008083540402835291602001916116f1565b820191906000526020600020905b8154815290600101906020018083116116d457829003601f168201915b505050505081525050905080600001518160200151826040015183606001518393508292508090509450945094509450509193509193565b8360016000019080519060200190611742929190611eb8565b508260018001908051906020019061175b929190611eb8565b5081600160020181905550806001600301908051906020019061177f929190611eb8565b5060016000808761ffff168152602001908152602001600020600082018160000190805460018160011615610100020316600290046117bf929190611f38565b50600182018160010190805460018160011615610100020316600290046117e7929190611f38565b506002820154816002015560038201816003019080546001816001161561010002031660029004611819929190611f38565b509050505050505050565b88600b600001908051906020019061183d929190611eb8565b5087600b6001018190555086600b6002019080519060200190611861929190611eb8565b5085600b600301908051906020019061187b929190611eb8565b5084600b6004018190555083600b600501908051906020019061189f929190611eb8565b5082600b6006018190555081600b60070190805190602001906118c3929190611eb8565b5080600b60080181905550600b600a60008c81526020019081526020016000206000820181600001908054600181600116156101000203166002900461190a929190611f38565b50600182015481600101556002820181600201908054600181600116156101000203166002900461193c929190611f38565b5060038201816003019080546001816001161561010002031660029004611964929190611f38565b506004820154816004015560058201816005019080546001816001161561010002031660029004611996929190611f38565b5060068201548160060155600782018160070190805460018160011615610100020316600290046119c8929190611f38565b506008820154816008015560098201548160090155600a82015481600a015590505050505050505050505050565b6060806000611a03612041565b6016600086815260200190815260200160002060405180608001604052908160008201548152602001600182018054600181600116156101000203166002900480601f016020809104026020016040519081016040528092919081815260200182805460018160011615610100020316600290048015611ac45780601f10611a9957610100808354040283529160200191611ac4565b820191906000526020600020905b815481529060010190602001808311611aa757829003601f168201915b50505050508152602001600282018054600181600116156101000203166002900480601f016020809104026020016040519081016040528092919081815260200182805460018160011615610100020316600290048015611b665780601f10611b3b57610100808354040283529160200191611b66565b820191906000526020600020905b815481529060010190602001808311611b4957829003601f168201915b505050505081526020016003820154815250509050806020015181604001518260600151829250819150935093509350509193909250565b60608060006060611bad612069565b600560008761ffff168152602001908152602001600020604051806080016040529081600082018054600181600116156101000203166002900480601f016020809104026020016040519081016040528092919081815260200182805460018160011615610100020316600290048015611c685780601f10611c3d57610100808354040283529160200191611c68565b820191906000526020600020905b815481529060010190602001808311611c4b57829003601f168201915b50505050508152602001600182018054600181600116156101000203166002900480601f016020809104026020016040519081016040528092919081815260200182805460018160011615610100020316600290048015611d0a5780601f10611cdf57610100808354040283529160200191611d0a565b820191906000526020600020905b815481529060010190602001808311611ced57829003601f168201915b5050505050815260200160028201548152602001600382018054600181600116156101000203166002900480601f016020809104026020016040519081016040528092919081815260200182805460018160011615610100020316600290048015611db65780601f10611d8b57610100808354040283529160200191611db6565b820191906000526020600020905b815481529060010190602001808311611d9957829003601f168201915b505050505081525050905080600001518160200151826040015183606001518393508292508090509450945094509450509193509193565b836017600001819055508260176001019080519060200190611e11929190611eb8565b508160176002019080519060200190611e2b929190611eb8565b50806017600301819055506017601660008681526020019081526020016000206000820154816000015560018201816001019080546001816001161561010002031660029004611e7c929190611f38565b5060028201816002019080546001816001161561010002031660029004611ea4929190611f38565b506003820154816003015590505050505050565b828054600181600116156101000203166002900490600052602060002090601f016020900481019282601f10611ef957805160ff1916838001178555611f27565b82800160010185558215611f27579182015b82811115611f26578251825591602001919060010190611f0b565b5b509050611f349190612091565b5090565b828054600181600116156101000203166002900490600052602060002090601f016020900481019282601f10611f715780548555611fae565b82800160010185558215611fae57600052602060002091601f016020900482015b82811115611fad578254825591600101919060010190611f92565b5b509050611fbb9190612091565b5090565b60405180610160016040528060608152602001600081526020016060815260200160608152602001600081526020016060815260200160008152602001606081526020016000815260200160008152602001600081525090565b6040518060800160405280606081526020016060815260200160008152602001606081525090565b6040518060800160405280600081526020016060815260200160608152602001600081525090565b6040518060800160405280606081526020016060815260200160008152602001606081525090565b6120b391905b808211156120af576000816000905550600101612097565b5090565b9056fea265627a7a723158206d088b38ce79ddc577287edcf6bf8be9894e0e37712fe822980bd8ee44aee43f64736f6c63430005100032",
  "source": "pragma solidity >=0.4.22 <0.7.0;\n/**\n * @title Medical records\n * @dev Store & retreive Doctor details\n */\n\n\ncontract Meme {\n\n//Doctor\n\n\n     struct doctor{\n         string doctor_name;\n         string doctor_specialisation;\n         uint256 doctor_ph_no;\n         string doctor_address;\n     }\n\n     mapping(uint256 => doctor) doctorlist;\n     doctor d;\n\n     function store_doctor_details(uint16 doctor_id,string memory _doctor_name,string memory _doctor_specialisation,uint256 _doctor_ph_no,string memory _doctor_address) public{\n\n           d.doctor_name = _doctor_name;\n           d.doctor_specialisation = _doctor_specialisation;\n           d.doctor_ph_no = _doctor_ph_no;\n           d.doctor_address = _doctor_address;\n\n\n          doctorlist[doctor_id] = d;\n\n\n     }\n\n     function retreive_doctor_details(uint16 doctor_id) public view returns (string memory,string memory,uint256,string memory){\n\n       doctor memory dl = doctorlist[doctor_id];\n\n       return (dl.doctor_name,dl.doctor_specialisation,dl.doctor_ph_no,dl.doctor_address);\n\n      }\n\n      //Staff\n\n     struct staff{\n         string staff_name;\n         string staff_specialisation;\n         uint256 staff_ph_no;\n         string staff_address;\n     }\n     mapping(uint256 => staff) stafflist;\n     staff s;\n\n     function store_staff_details(uint16 staff_id,string memory _staff_name,string memory _staff_specialisation,uint256 _staff_ph_no,string memory _staff_address) public{\n\n           s.staff_name = _staff_name;\n           s.staff_specialisation = _staff_specialisation;\n           s.staff_ph_no = _staff_ph_no;\n           s.staff_address = _staff_address;\n\n\n          stafflist[staff_id] = s;\n\n\n     }\n\n\n\n\n\n    function retreive_staff_details(uint16 staff_id) public view returns (string memory,string memory,uint256,string memory){\n\n      staff memory sl = stafflist[staff_id];\n\n      return (sl.staff_name,sl.staff_specialisation,sl.staff_ph_no,sl.staff_address);\n\n           }\n\n\n        //Patient\n\n     struct patient{\n     string patient_name;\n     uint256 age;\n     string gender;\n     string height;\n     uint256 weight;\n     string patient_address;\n     uint256 phone_no;\n     string email_id;\n     uint256 date;\n     uint256 doctor_id;\n     uint256 hospital_id;\n     }\n     mapping(uint256 => patient) patientlist;\n     patient p;\n\n\n         function store_patient_details(uint256 patient_id,string memory _patient_name,uint256 _age,string memory _gender,string memory _height,uint256 _weight,string memory _patient_address,uint256 _phone_no,string memory _email_id,uint256 _date)public {\n\n\n                     p.patient_name=_patient_name;\n                     p.age=_age;\n                     p.gender=_gender;\n                     p.height=_height;\n                     p.weight=_weight;\n                     p.patient_address=_patient_address;\n                     p.phone_no=_phone_no;\n                     p.email_id=_email_id;\n                     p.date=_date;\n\n                    patientlist[patient_id] = p;\n                     }\n\n           function retreive_patient_details(uint256 patient_id) public view returns (string memory,uint256,string memory,string memory,uint256,string memory,uint256,string memory,uint256){\n                        patient memory pl = patientlist[patient_id];\n\n                    return (pl.patient_name,pl.age,pl.gender,pl.height,pl.weight,pl.patient_address,pl.phone_no,pl.email_id,pl.date);\n\n                    }\n\n     //Attendant\n\n     struct attendant{\n         uint256 patient_id;\n     string attendant_name;\n     string attendant_relation;\n     uint256 attendant_phn_no;\n     }\n\n     mapping(uint256 =>attendant) attendantlist;\n     attendant a;\n\n     function store_attendant_details(uint256 patient_id,string memory _attendant_name,string memory _attendant_relation, uint256 _attendant_phn_no)public{\n\n                 a.patient_id = patient_id;\n                a.attendant_name=_attendant_name;\n                 a.attendant_relation=_attendant_relation;\n                 a.attendant_phn_no=_attendant_phn_no;\n\n                 attendantlist[patient_id] = a;\n             }\n\n   function retreive_attendant_details(uint256 patient_id) public view returns (string memory,string memory,uint256){\n\n                 attendant memory al = attendantlist[patient_id];\n\n             return (al.attendant_name,al.attendant_relation,al.attendant_phn_no);\n\n            }\n\n          \n}\n",
  "sourcePath": "C:/Users/Tarun Jain/Desktop/Project/Hospital-record-management-using-blockchain.-master/contracts/Meme.sol",
  "compiler": {
    "name": "solc",
    "version": "0.5.16+commit.9c3226ce.Emscripten.clang"
  },
  "schemaVersion": "3.4.1",
  "updatedAt": "2021-08-07T04:10:33.139Z",
  "networkType": "ethereum",
  "devdoc": {
    "details": "Store & retreive Doctor details",
    "methods": {},
    "title": "Medical records"
  },
  "userdoc": {
    "methods": {}
  }
}