{
  "contractName": "Scan",
  "abi": [
    {
      "constant": false,
      "inputs": [
        {
          "internalType": "uint256",
          "name": "patient_id",
          "type": "uint256"
        },
        {
          "internalType": "string",
          "name": "_blood_test",
          "type": "string"
        },
        {
          "internalType": "string",
          "name": "_urine_test",
          "type": "string"
        },
        {
          "internalType": "string",
          "name": "_ecg",
          "type": "string"
        },
        {
          "internalType": "string",
          "name": "_mri_scan",
          "type": "string"
        },
        {
          "internalType": "string",
          "name": "_ct_scan",
          "type": "string"
        },
        {
          "internalType": "string",
          "name": "_xray",
          "type": "string"
        },
        {
          "internalType": "string",
          "name": "_lab_test",
          "type": "string"
        }
      ],
      "name": "investigations",
      "outputs": [],
      "payable": false,
      "stateMutability": "nonpayable",
      "type": "function"
    },
    {
      "constant": true,
      "inputs": [
        {
          "internalType": "uint256",
          "name": "patient_id",
          "type": "uint256"
        }
      ],
      "name": "get_investigations",
      "outputs": [
        {
          "internalType": "string",
          "name": "",
          "type": "string"
        },
        {
          "internalType": "string",
          "name": "",
          "type": "string"
        },
        {
          "internalType": "string",
          "name": "",
          "type": "string"
        },
        {
          "internalType": "string",
          "name": "",
          "type": "string"
        },
        {
          "internalType": "string",
          "name": "",
          "type": "string"
        },
        {
          "internalType": "string",
          "name": "",
          "type": "string"
        },
        {
          "internalType": "string",
          "name": "",
          "type": "string"
        }
      ],
      "payable": false,
      "stateMutability": "view",
      "type": "function"
    },
    {
      "constant": false,
      "inputs": [
        {
          "internalType": "uint256",
          "name": "patient_id",
          "type": "uint256"
        },
        {
          "internalType": "string",
          "name": "_built",
          "type": "string"
        },
        {
          "internalType": "string",
          "name": "_nouirishment",
          "type": "string"
        },
        {
          "internalType": "string",
          "name": "_eyes",
          "type": "string"
        },
        {
          "internalType": "string",
          "name": "_tongue",
          "type": "string"
        },
        {
          "internalType": "uint64",
          "name": "_pulse",
          "type": "uint64"
        },
        {
          "internalType": "string",
          "name": "_blood_pressure",
          "type": "string"
        },
        {
          "internalType": "uint64",
          "name": "_temp",
          "type": "uint64"
        },
        {
          "internalType": "uint64",
          "name": "_respiratory_rate",
          "type": "uint64"
        }
      ],
      "name": "general_examin",
      "outputs": [],
      "payable": false,
      "stateMutability": "nonpayable",
      "type": "function"
    },
    {
      "constant": true,
      "inputs": [
        {
          "internalType": "uint256",
          "name": "patient_id",
          "type": "uint256"
        }
      ],
      "name": "get_general_examin",
      "outputs": [
        {
          "internalType": "string",
          "name": "",
          "type": "string"
        },
        {
          "internalType": "string",
          "name": "",
          "type": "string"
        },
        {
          "internalType": "string",
          "name": "",
          "type": "string"
        },
        {
          "internalType": "string",
          "name": "",
          "type": "string"
        },
        {
          "internalType": "uint64",
          "name": "",
          "type": "uint64"
        },
        {
          "internalType": "string",
          "name": "",
          "type": "string"
        },
        {
          "internalType": "uint64",
          "name": "",
          "type": "uint64"
        },
        {
          "internalType": "uint64",
          "name": "",
          "type": "uint64"
        }
      ],
      "payable": false,
      "stateMutability": "view",
      "type": "function"
    },
    {
      "constant": false,
      "inputs": [
        {
          "internalType": "uint256",
          "name": "patient_id",
          "type": "uint256"
        },
        {
          "internalType": "string",
          "name": "_cvs",
          "type": "string"
        },
        {
          "internalType": "string",
          "name": "_cns",
          "type": "string"
        },
        {
          "internalType": "string",
          "name": "_rs",
          "type": "string"
        },
        {
          "internalType": "string",
          "name": "_abdomen",
          "type": "string"
        }
      ],
      "name": "sys_examin",
      "outputs": [],
      "payable": false,
      "stateMutability": "nonpayable",
      "type": "function"
    },
    {
      "constant": true,
      "inputs": [
        {
          "internalType": "uint256",
          "name": "patient_id",
          "type": "uint256"
        }
      ],
      "name": "get_sys_examin",
      "outputs": [
        {
          "internalType": "string",
          "name": "",
          "type": "string"
        },
        {
          "internalType": "string",
          "name": "",
          "type": "string"
        },
        {
          "internalType": "string",
          "name": "",
          "type": "string"
        },
        {
          "internalType": "string",
          "name": "",
          "type": "string"
        }
      ],
      "payable": false,
      "stateMutability": "view",
      "type": "function"
    }
  ],
  "bytecode": "0x608060405234801561001057600080fd5b5061267a806100206000396000f3fe608060405234801561001057600080fd5b50600436106100625760003560e01c80630e0b04141461006757806330ed8fd0146104b75780633ca203fe146107415780638a368ad2146109e9578063ab54690514610bd4578063f5f14a7114610f03575b600080fd5b6104b5600480360361010081101561007e57600080fd5b8101908080359060200190929190803590602001906401000000008111156100a557600080fd5b8201836020820111156100b757600080fd5b803590602001918460018302840111640100000000831117156100d957600080fd5b91908080601f016020809104026020016040519081016040528093929190818152602001838380828437600081840152601f19601f8201169050808301925050505050505091929192908035906020019064010000000081111561013c57600080fd5b82018360208201111561014e57600080fd5b8035906020019184600183028401116401000000008311171561017057600080fd5b91908080601f016020809104026020016040519081016040528093929190818152602001838380828437600081840152601f19601f820116905080830192505050505050509192919290803590602001906401000000008111156101d357600080fd5b8201836020820111156101e557600080fd5b8035906020019184600183028401116401000000008311171561020757600080fd5b91908080601f016020809104026020016040519081016040528093929190818152602001838380828437600081840152601f19601f8201169050808301925050505050505091929192908035906020019064010000000081111561026a57600080fd5b82018360208201111561027c57600080fd5b8035906020019184600183028401116401000000008311171561029e57600080fd5b91908080601f016020809104026020016040519081016040528093929190818152602001838380828437600081840152601f19601f8201169050808301925050505050505091929192908035906020019064010000000081111561030157600080fd5b82018360208201111561031357600080fd5b8035906020019184600183028401116401000000008311171561033557600080fd5b91908080601f016020809104026020016040519081016040528093929190818152602001838380828437600081840152601f19601f8201169050808301925050505050505091929192908035906020019064010000000081111561039857600080fd5b8201836020820111156103aa57600080fd5b803590602001918460018302840111640100000000831117156103cc57600080fd5b91908080601f016020809104026020016040519081016040528093929190818152602001838380828437600081840152601f19601f8201169050808301925050505050505091929192908035906020019064010000000081111561042f57600080fd5b82018360208201111561044157600080fd5b8035906020019184600183028401116401000000008311171561046357600080fd5b91908080601f016020809104026020016040519081016040528093929190818152602001838380828437600081840152601f19601f820116905080830192505050505050509192919290505050611261565b005b61073f600480360360a08110156104cd57600080fd5b8101908080359060200190929190803590602001906401000000008111156104f457600080fd5b82018360208201111561050657600080fd5b8035906020019184600183028401116401000000008311171561052857600080fd5b91908080601f016020809104026020016040519081016040528093929190818152602001838380828437600081840152601f19601f8201169050808301925050505050505091929192908035906020019064010000000081111561058b57600080fd5b82018360208201111561059d57600080fd5b803590602001918460018302840111640100000000831117156105bf57600080fd5b91908080601f016020809104026020016040519081016040528093929190818152602001838380828437600081840152601f19601f8201169050808301925050505050505091929192908035906020019064010000000081111561062257600080fd5b82018360208201111561063457600080fd5b8035906020019184600183028401116401000000008311171561065657600080fd5b91908080601f016020809104026020016040519081016040528093929190818152602001838380828437600081840152601f19601f820116905080830192505050505050509192919290803590602001906401000000008111156106b957600080fd5b8201836020820111156106cb57600080fd5b803590602001918460018302840111640100000000831117156106ed57600080fd5b91908080601f016020809104026020016040519081016040528093929190818152602001838380828437600081840152601f19601f82011690508083019250505050505050919291929050505061144f565b005b61076d6004803603602081101561075757600080fd5b8101908080359060200190929190505050611576565b60405180806020018060200180602001806020018967ffffffffffffffff1667ffffffffffffffff168152602001806020018867ffffffffffffffff1667ffffffffffffffff1681526020018767ffffffffffffffff1667ffffffffffffffff16815260200186810386528e818151815260200191508051906020019080838360005b8381101561080b5780820151818401526020810190506107f0565b50505050905090810190601f1680156108385780820380516001836020036101000a031916815260200191505b5086810385528d818151815260200191508051906020019080838360005b83811015610871578082015181840152602081019050610856565b50505050905090810190601f16801561089e5780820380516001836020036101000a031916815260200191505b5086810384528c818151815260200191508051906020019080838360005b838110156108d75780820151818401526020810190506108bc565b50505050905090810190601f1680156109045780820380516001836020036101000a031916815260200191505b5086810383528b818151815260200191508051906020019080838360005b8381101561093d578082015181840152602081019050610922565b50505050905090810190601f16801561096a5780820380516001836020036101000a031916815260200191505b50868103825289818151815260200191508051906020019080838360005b838110156109a3578082015181840152602081019050610988565b50505050905090810190601f1680156109d05780820380516001836020036101000a031916815260200191505b509d505050505050505050505050505060405180910390f35b610a15600480360360208110156109ff57600080fd5b81019080803590602001909291905050506119bf565b6040518080602001806020018060200180602001858103855289818151815260200191508051906020019080838360005b83811015610a61578082015181840152602081019050610a46565b50505050905090810190601f168015610a8e5780820380516001836020036101000a031916815260200191505b50858103845288818151815260200191508051906020019080838360005b83811015610ac7578082015181840152602081019050610aac565b50505050905090810190601f168015610af45780820380516001836020036101000a031916815260200191505b50858103835287818151815260200191508051906020019080838360005b83811015610b2d578082015181840152602081019050610b12565b50505050905090810190601f168015610b5a5780820380516001836020036101000a031916815260200191505b50858103825286818151815260200191508051906020019080838360005b83811015610b93578082015181840152602081019050610b78565b50505050905090810190601f168015610bc05780820380516001836020036101000a031916815260200191505b509850505050505050505060405180910390f35b610c0060048036036020811015610bea57600080fd5b8101908080359060200190929190505050611ca5565b604051808060200180602001806020018060200180602001806020018060200188810388528f818151815260200191508051906020019080838360005b83811015610c58578082015181840152602081019050610c3d565b50505050905090810190601f168015610c855780820380516001836020036101000a031916815260200191505b5088810387528e818151815260200191508051906020019080838360005b83811015610cbe578082015181840152602081019050610ca3565b50505050905090810190601f168015610ceb5780820380516001836020036101000a031916815260200191505b5088810386528d818151815260200191508051906020019080838360005b83811015610d24578082015181840152602081019050610d09565b50505050905090810190601f168015610d515780820380516001836020036101000a031916815260200191505b5088810385528c818151815260200191508051906020019080838360005b83811015610d8a578082015181840152602081019050610d6f565b50505050905090810190601f168015610db75780820380516001836020036101000a031916815260200191505b5088810384528b818151815260200191508051906020019080838360005b83811015610df0578082015181840152602081019050610dd5565b50505050905090810190601f168015610e1d5780820380516001836020036101000a031916815260200191505b5088810383528a818151815260200191508051906020019080838360005b83811015610e56578082015181840152602081019050610e3b565b50505050905090810190601f168015610e835780820380516001836020036101000a031916815260200191505b50888103825289818151815260200191508051906020019080838360005b83811015610ebc578082015181840152602081019050610ea1565b50505050905090810190601f168015610ee95780820380516001836020036101000a031916815260200191505b509e50505050505050505050505050505060405180910390f35b61125f6004803603610120811015610f1a57600080fd5b810190808035906020019092919080359060200190640100000000811115610f4157600080fd5b820183602082011115610f5357600080fd5b80359060200191846001830284011164010000000083111715610f7557600080fd5b91908080601f016020809104026020016040519081016040528093929190818152602001838380828437600081840152601f19601f82011690508083019250505050505050919291929080359060200190640100000000811115610fd857600080fd5b820183602082011115610fea57600080fd5b8035906020019184600183028401116401000000008311171561100c57600080fd5b91908080601f016020809104026020016040519081016040528093929190818152602001838380828437600081840152601f19601f8201169050808301925050505050505091929192908035906020019064010000000081111561106f57600080fd5b82018360208201111561108157600080fd5b803590602001918460018302840111640100000000831117156110a357600080fd5b91908080601f016020809104026020016040519081016040528093929190818152602001838380828437600081840152601f19601f8201169050808301925050505050505091929192908035906020019064010000000081111561110657600080fd5b82018360208201111561111857600080fd5b8035906020019184600183028401116401000000008311171561113a57600080fd5b91908080601f016020809104026020016040519081016040528093929190818152602001838380828437600081840152601f19601f820116905080830192505050505050509192919290803567ffffffffffffffff169060200190929190803590602001906401000000008111156111b157600080fd5b8201836020820111156111c357600080fd5b803590602001918460018302840111640100000000831117156111e557600080fd5b91908080601f016020809104026020016040519081016040528093929190818152602001838380828437600081840152601f19601f820116905080830192505050505050509192919290803567ffffffffffffffff169060200190929190803567ffffffffffffffff169060200190929190505050612197565b005b866001600001908051906020019061127a929190612451565b5085600180019080519060200190611293929190612451565b5084600160020190805190602001906112ad929190612451565b5083600160030190805190602001906112c7929190612451565b5082600160040190805190602001906112e1929190612451565b5081600160050190805190602001906112fb929190612451565b508060016006019080519060200190611315929190612451565b5060016000808a8152602001908152602001600020600082018160000190805460018160011615610100020316600290046113519291906124d1565b50600182018160010190805460018160011615610100020316600290046113799291906124d1565b50600282018160020190805460018160011615610100020316600290046113a19291906124d1565b50600382018160030190805460018160011615610100020316600290046113c99291906124d1565b50600482018160040190805460018160011615610100020316600290046113f19291906124d1565b50600582018160050190805460018160011615610100020316600290046114199291906124d1565b50600682018160060190805460018160011615610100020316600290046114419291906124d1565b509050505050505050505050565b8360116001019080519060200190611468929190612451565b508260116000019080519060200190611482929190612451565b50816011600201908051906020019061149c929190612451565b5080601160030190805190602001906114b6929190612451565b50601160106000878152602001908152602001600020600082018160000190805460018160011615610100020316600290046114f39291906124d1565b506001820181600101908054600181600116156101000203166002900461151b9291906124d1565b50600282018160020190805460018160011615610100020316600290046115439291906124d1565b506003820181600301908054600181600116156101000203166002900461156b9291906124d1565b509050505050505050565b6060806060806000606060008061158b612558565b600860008b815260200190815260200160002060405180610100016040529081600082018054600181600116156101000203166002900480601f0160208091040260200160405190810160405280929190818152602001828054600181600116156101000203166002900480156116435780601f1061161857610100808354040283529160200191611643565b820191906000526020600020905b81548152906001019060200180831161162657829003601f168201915b50505050508152602001600182018054600181600116156101000203166002900480601f0160208091040260200160405190810160405280929190818152602001828054600181600116156101000203166002900480156116e55780601f106116ba576101008083540402835291602001916116e5565b820191906000526020600020905b8154815290600101906020018083116116c857829003601f168201915b50505050508152602001600282018054600181600116156101000203166002900480601f0160208091040260200160405190810160405280929190818152602001828054600181600116156101000203166002900480156117875780601f1061175c57610100808354040283529160200191611787565b820191906000526020600020905b81548152906001019060200180831161176a57829003601f168201915b50505050508152602001600382018054600181600116156101000203166002900480601f0160208091040260200160405190810160405280929190818152602001828054600181600116156101000203166002900480156118295780601f106117fe57610100808354040283529160200191611829565b820191906000526020600020905b81548152906001019060200180831161180c57829003601f168201915b505050505081526020016004820160009054906101000a900467ffffffffffffffff1667ffffffffffffffff1667ffffffffffffffff1681526020016004820160089054906101000a900467ffffffffffffffff1667ffffffffffffffff1667ffffffffffffffff168152602001600582018054600181600116156101000203166002900480601f01602080910402602001604051908101604052809291908181526020018280546001816001161561010002031660029004801561192f5780601f106119045761010080835404028352916020019161192f565b820191906000526020600020905b81548152906001019060200180831161191257829003601f168201915b505050505081526020016006820160009054906101000a900467ffffffffffffffff1667ffffffffffffffff1667ffffffffffffffff16815250509050806000015181602001518260400151836060015184608001518560c001518660a001518760e001518797508696508595508494508292509850985098509850985098509850985050919395975091939597565b6060806060806119cd6125bb565b60106000878152602001908152602001600020604051806080016040529081600082018054600181600116156101000203166002900480601f016020809104026020016040519081016040528092919081815260200182805460018160011615610100020316600290048015611a845780601f10611a5957610100808354040283529160200191611a84565b820191906000526020600020905b815481529060010190602001808311611a6757829003601f168201915b50505050508152602001600182018054600181600116156101000203166002900480601f016020809104026020016040519081016040528092919081815260200182805460018160011615610100020316600290048015611b265780601f10611afb57610100808354040283529160200191611b26565b820191906000526020600020905b815481529060010190602001808311611b0957829003601f168201915b50505050508152602001600282018054600181600116156101000203166002900480601f016020809104026020016040519081016040528092919081815260200182805460018160011615610100020316600290048015611bc85780601f10611b9d57610100808354040283529160200191611bc8565b820191906000526020600020905b815481529060010190602001808311611bab57829003601f168201915b50505050508152602001600382018054600181600116156101000203166002900480601f016020809104026020016040519081016040528092919081815260200182805460018160011615610100020316600290048015611c6a5780601f10611c3f57610100808354040283529160200191611c6a565b820191906000526020600020905b815481529060010190602001808311611c4d57829003601f168201915b505050505081525050905080602001518160000151826040015183606001518393508292508191508090509450945094509450509193509193565b6060806060806060806060611cb86125e3565b6000808a81526020019081526020016000206040518060e0016040529081600082018054600181600116156101000203166002900480601f016020809104026020016040519081016040528092919081815260200182805460018160011615610100020316600290048015611d6e5780601f10611d4357610100808354040283529160200191611d6e565b820191906000526020600020905b815481529060010190602001808311611d5157829003601f168201915b50505050508152602001600182018054600181600116156101000203166002900480601f016020809104026020016040519081016040528092919081815260200182805460018160011615610100020316600290048015611e105780601f10611de557610100808354040283529160200191611e10565b820191906000526020600020905b815481529060010190602001808311611df357829003601f168201915b50505050508152602001600282018054600181600116156101000203166002900480601f016020809104026020016040519081016040528092919081815260200182805460018160011615610100020316600290048015611eb25780601f10611e8757610100808354040283529160200191611eb2565b820191906000526020600020905b815481529060010190602001808311611e9557829003601f168201915b50505050508152602001600382018054600181600116156101000203166002900480601f016020809104026020016040519081016040528092919081815260200182805460018160011615610100020316600290048015611f545780601f10611f2957610100808354040283529160200191611f54565b820191906000526020600020905b815481529060010190602001808311611f3757829003601f168201915b50505050508152602001600482018054600181600116156101000203166002900480601f016020809104026020016040519081016040528092919081815260200182805460018160011615610100020316600290048015611ff65780601f10611fcb57610100808354040283529160200191611ff6565b820191906000526020600020905b815481529060010190602001808311611fd957829003601f168201915b50505050508152602001600582018054600181600116156101000203166002900480601f0160208091040260200160405190810160405280929190818152602001828054600181600116156101000203166002900480156120985780601f1061206d57610100808354040283529160200191612098565b820191906000526020600020905b81548152906001019060200180831161207b57829003601f168201915b50505050508152602001600682018054600181600116156101000203166002900480601f01602080910402602001604051908101604052809291908181526020018280546001816001161561010002031660029004801561213a5780601f1061210f5761010080835404028352916020019161213a565b820191906000526020600020905b81548152906001019060200180831161211d57829003601f168201915b5050505050815250509050806000015181602001518260400151836060015184608001518560a001518660c00151869650859550849450839350829250819150809050975097509750975097509750975050919395979092949650565b87600960000190805190602001906121b0929190612451565b5086600960010190805190602001906121ca929190612451565b5085600960020190805190602001906121e4929190612451565b5084600960030190805190602001906121fe929190612451565b5083600960040160006101000a81548167ffffffffffffffff021916908367ffffffffffffffff1602179055508260096005019080519060200190612244929190612451565b5081600960040160086101000a81548167ffffffffffffffff021916908367ffffffffffffffff16021790555080600960060160006101000a81548167ffffffffffffffff021916908367ffffffffffffffff1602179055506009600860008b8152602001908152602001600020600082018160000190805460018160011615610100020316600290046122d99291906124d1565b50600182018160010190805460018160011615610100020316600290046123019291906124d1565b50600282018160020190805460018160011615610100020316600290046123299291906124d1565b50600382018160030190805460018160011615610100020316600290046123519291906124d1565b506004820160009054906101000a900467ffffffffffffffff168160040160006101000a81548167ffffffffffffffff021916908367ffffffffffffffff1602179055506004820160089054906101000a900467ffffffffffffffff168160040160086101000a81548167ffffffffffffffff021916908367ffffffffffffffff160217905550600582018160050190805460018160011615610100020316600290046123ff9291906124d1565b506006820160009054906101000a900467ffffffffffffffff168160060160006101000a81548167ffffffffffffffff021916908367ffffffffffffffff160217905550905050505050505050505050565b828054600181600116156101000203166002900490600052602060002090601f016020900481019282601f1061249257805160ff19168380011785556124c0565b828001600101855582156124c0579182015b828111156124bf5782518255916020019190600101906124a4565b5b5090506124cd9190612620565b5090565b828054600181600116156101000203166002900490600052602060002090601f016020900481019282601f1061250a5780548555612547565b8280016001018555821561254757600052602060002091601f016020900482015b8281111561254657825482559160010191906001019061252b565b5b5090506125549190612620565b5090565b60405180610100016040528060608152602001606081526020016060815260200160608152602001600067ffffffffffffffff168152602001600067ffffffffffffffff16815260200160608152602001600067ffffffffffffffff1681525090565b6040518060800160405280606081526020016060815260200160608152602001606081525090565b6040518060e00160405280606081526020016060815260200160608152602001606081526020016060815260200160608152602001606081525090565b61264291905b8082111561263e576000816000905550600101612626565b5090565b9056fea265627a7a72315820013424092693d95fb6ed2a1c56a3c33e43448211cf3e24916395181a8f727c0d64736f6c63430005100032",
  "source": "pragma solidity >=0.4.22 <0.7.0;\n\n\ncontract Scan{\n\nstruct tests{\n     string blood_test;\n     string urine_test;\n     string ecg;\n     string mri_scan;\n     string ct_scan;\n     string xray;\n     string lab_test;\n}\nmapping(uint256 => tests) patienttests;\ntests t;\nfunction investigations(uint256 patient_id,string memory _blood_test,string memory _urine_test,string memory _ecg,string memory _mri_scan,string memory _ct_scan,string memory _xray,string memory _lab_test)public {\n\n\n                                                             t.blood_test = _blood_test;\n                                                             t.urine_test = _urine_test;\n                                                             t.ecg = _ecg;\n                                                             t.mri_scan = _mri_scan;\n                                                             t.ct_scan = _ct_scan;\n                                                             t.xray = _xray;\n                                                             t.lab_test = _lab_test;\n\n\n                                                             patienttests[patient_id] = t;\n\n                                                         }\nfunction get_investigations(uint256 patient_id)public view returns (string memory,string memory,string memory,string memory,string memory,string memory,string memory){\n\n                                                            tests memory tl = patienttests[patient_id];\n\n                                                             return ( tl.blood_test,tl.urine_test,tl.ecg,tl.mri_scan,tl.ct_scan, tl.xray,tl.lab_test);\n\n                                                             }\n//Scan\n\n\nstruct scan{\n     string built;\n     string nouirishment;\n     string eyes;\n     string tongue;\n     uint64 pulse;\n     uint64 temp;\n     string blood_pressure;\n     uint64 respiratory_rate;\n}\n\nmapping(uint256 => scan) scantests;\nscan su;\n\nfunction general_examin(uint256 patient_id,string memory _built,string memory _nouirishment,string memory _eyes,string memory _tongue,uint64 _pulse,string memory _blood_pressure,uint64 _temp,uint64 _respiratory_rate)public {\n\n\n                                                                           su.built = _built;\n                                                                           su.nouirishment = _nouirishment;\n                                                                           su.eyes = _eyes;\n                                                                           su.tongue = _tongue;\n                                                                           su.pulse = _pulse;\n                                                                           su.blood_pressure = _blood_pressure;\n                                                                           su.temp = _temp;\n                                                                           su.respiratory_rate = _respiratory_rate;\n\n\n                                                                           scantests[patient_id] = su;\n\n                                                                       }\nfunction get_general_examin(uint256 patient_id)public view returns (string memory,string memory,string memory,string memory,uint64,string memory,uint64,uint64){\n\n                                                                            scan memory sll = scantests[patient_id];\n\n                                                                           return ( sll.built,sll.nouirishment,sll.eyes,sll.tongue,sll.pulse,sll.blood_pressure,sll.temp,sll.respiratory_rate);\n\n                                                                           }\n//System\n\nstruct system{\n     string cns;\n     string cvs;\n     string rs;\n     string abdomen;\n}\n\n    mapping(uint256 => system) systemexamine;\n    system sys;\nfunction sys_examin(uint256 patient_id,string memory _cvs,string memory _cns,string memory _rs,string memory _abdomen)public {\n\n\n                                                                                         sys.cvs = _cvs;\n                                                                                         sys.cns = _cns;\n                                                                                         sys.rs = _rs;\n                                                                                         sys.abdomen = _abdomen;\n\n\n                                                                                         systemexamine[patient_id] = sys;\n\n                                                                                     }\nfunction get_sys_examin(uint256 patient_id)public view returns (string memory,string memory,string memory,string memory){\n\n                                                                                          system memory sysl = systemexamine[patient_id];\n\n                                                                                         return (  sysl.cvs,sysl.cns,sysl.rs,sysl.abdomen);\n\n                                                                                         }\n\n\n\n}\n",
  "sourcePath": "C:/Users/Tarun Jain/Desktop/Project/Hospital-record-management-using-blockchain.-master/contracts/Scan.sol",
  "compiler": {
    "name": "solc",
    "version": "0.5.16+commit.9c3226ce.Emscripten.clang"
  },
  "schemaVersion": "3.4.1",
  "updatedAt": "2021-08-07T04:10:35.161Z",
  "networkType": "ethereum",
  "devdoc": {
    "methods": {}
  },
  "userdoc": {
    "methods": {}
  }
}